{
  "_format": "hh-sol-artifact-1",
  "contractName": "QuickswapLiquidity",
  "sourceName": "contracts/QuickswapLiquidity.sol",
  "abi": [
    {
      "inputs": [],
      "stateMutability": "nonpayable",
      "type": "constructor"
    },
    {
      "anonymous": false,
      "inputs": [
        {
          "indexed": false,
          "internalType": "uint256",
          "name": "amountA",
          "type": "uint256"
        },
        {
          "indexed": false,
          "internalType": "uint256",
          "name": "amountB",
          "type": "uint256"
        },
        {
          "indexed": false,
          "internalType": "uint256",
          "name": "liquidity",
          "type": "uint256"
        }
      ],
      "name": "LiquidityAddedTo",
      "type": "event"
    },
    {
      "anonymous": false,
      "inputs": [
        {
          "indexed": false,
          "internalType": "address",
          "name": "tokenIn",
          "type": "address"
        },
        {
          "indexed": false,
          "internalType": "address",
          "name": "tokenOut",
          "type": "address"
        },
        {
          "indexed": false,
          "internalType": "address",
          "name": "to",
          "type": "address"
        }
      ],
      "name": "TokensSwapped",
      "type": "event"
    },
    {
      "inputs": [
        {
          "internalType": "address",
          "name": "_tokenA",
          "type": "address"
        },
        {
          "internalType": "address",
          "name": "_tokenB",
          "type": "address"
        },
        {
          "internalType": "uint256",
          "name": "_amountA",
          "type": "uint256"
        },
        {
          "internalType": "uint256",
          "name": "_amountB",
          "type": "uint256"
        }
      ],
      "name": "addLiquidityToQuickswap",
      "outputs": [],
      "stateMutability": "nonpayable",
      "type": "function"
    },
    {
      "inputs": [
        {
          "internalType": "address",
          "name": "_tokenIn",
          "type": "address"
        },
        {
          "internalType": "address",
          "name": "_tokenOut",
          "type": "address"
        },
        {
          "internalType": "uint256",
          "name": "_amountIn",
          "type": "uint256"
        },
        {
          "internalType": "uint256",
          "name": "_amountOutMin",
          "type": "uint256"
        }
      ],
      "name": "swap",
      "outputs": [],
      "stateMutability": "nonpayable",
      "type": "function"
    }
  ],
  "bytecode": "0x608060405234801561001057600080fd5b50610a23806100206000396000f3fe608060405234801561001057600080fd5b50600436106100365760003560e01c806352e6007b1461003b578063fe02915614610050575b600080fd5b61004e6100493660046107ee565b610063565b005b61004e61005e3660046107ee565b6103d1565b6040516323b872dd60e01b8152336004820152306024820152604481018390526001600160a01b038516906323b872dd90606401602060405180830381600087803b1580156100b157600080fd5b505af11580156100c5573d6000803e3d6000fd5b505050506040513d601f19601f820116820180604052508101906100e991906108ef565b506040516323b872dd60e01b8152336004820152306024820152604481018290526001600160a01b038416906323b872dd90606401602060405180830381600087803b15801561013857600080fd5b505af115801561014c573d6000803e3d6000fd5b505050506040513d601f19601f8201168201806040525081019061017091906108ef565b5060405163095ea7b360e01b815273a5e0829caced8ffdd4de3c43696c57f7d7a678ff6004820152602481018390526001600160a01b0385169063095ea7b390604401602060405180830381600087803b1580156101cd57600080fd5b505af11580156101e1573d6000803e3d6000fd5b505050506040513d601f19601f8201168201806040525081019061020591906108ef565b5060405163095ea7b360e01b815273a5e0829caced8ffdd4de3c43696c57f7d7a678ff6004820152602481018290526001600160a01b0384169063095ea7b390604401602060405180830381600087803b15801561026257600080fd5b505af1158015610276573d6000803e3d6000fd5b505050506040513d601f19601f8201168201806040525081019061029a91906108ef565b506000808073a5e0829caced8ffdd4de3c43696c57f7d7a678ff63e8e33700888888886298968080336102d042620151806109b3565b60405160e08a901b6001600160e01b03191681526001600160a01b039889166004820152968816602488015260448701959095526064860193909352608485019190915260a484015290921660c482015260e481019190915261010401606060405180830381600087803b15801561034757600080fd5b505af115801561035b573d6000803e3d6000fd5b505050506040513d601f19601f8201168201806040525081019061037f9190610916565b604080518481526020810184905290810182905292955090935091507fa5981f7ed6e8d3320e12051b8734d43de3fe59af8bc447d50998649196ff063b9060600160405180910390a150505050505050565b6040516323b872dd60e01b8152336004820152306024820152604481018390526001600160a01b038516906323b872dd90606401602060405180830381600087803b15801561041f57600080fd5b505af1158015610433573d6000803e3d6000fd5b505050506040513d601f19601f8201168201806040525081019061045791906108ef565b5060405163095ea7b360e01b815273a5e0829caced8ffdd4de3c43696c57f7d7a678ff6004820152602481018390526001600160a01b0385169063095ea7b390604401602060405180830381600087803b1580156104b457600080fd5b505af11580156104c8573d6000803e3d6000fd5b505050506040513d601f19601f820116820180604052508101906104ec91906108ef565b5060606001600160a01b038516739c3c9283d3e44854697cd22d3faa240cfb032889148061053657506001600160a01b038416739c3c9283d3e44854697cd22d3faa240cfb032889145b156105e4576040805160028082526060820183529091602083019080368337019050509050848160008151811061057d57634e487b7160e01b600052603260045260246000fd5b60200260200101906001600160a01b031690816001600160a01b03168152505083816001815181106105bf57634e487b7160e01b600052603260045260246000fd5b60200260200101906001600160a01b031690816001600160a01b0316815250506106e0565b604080516003808252608082019092529060208201606080368337019050509050848160008151811061062757634e487b7160e01b600052603260045260246000fd5b60200260200101906001600160a01b031690816001600160a01b031681525050739c3c9283d3e44854697cd22d3faa240cfb0328898160018151811061067d57634e487b7160e01b600052603260045260246000fd5b60200260200101906001600160a01b031690816001600160a01b03168152505083816002815181106106bf57634e487b7160e01b600052603260045260246000fd5b60200260200101906001600160a01b031690816001600160a01b0316815250505b73a5e0829caced8ffdd4de3c43696c57f7d7a678ff6338ed17398484843361070b42620151806109b3565b6040518663ffffffff1660e01b815260040161072b959493929190610943565b600060405180830381600087803b15801561074557600080fd5b505af1158015610759573d6000803e3d6000fd5b505050506040513d6000823e601f3d908101601f19168201604052610781919081019061082f565b50604080516001600160a01b03878116825286166020820152338183015290517f609c740524d41447e38f11fa5a4e3bdae6a89851a231d1c39182ea8da46c68c39181900360600190a15050505050565b80356001600160a01b03811681146107e957600080fd5b919050565b60008060008060808587031215610803578384fd5b61080c856107d2565b935061081a602086016107d2565b93969395505050506040820135916060013590565b60006020808385031215610841578182fd5b825167ffffffffffffffff80821115610858578384fd5b818501915085601f83011261086b578384fd5b81518181111561087d5761087d6109d7565b8060051b604051601f19603f830116810181811085821117156108a2576108a26109d7565b604052828152858101935084860182860187018a10156108c0578788fd5b8795505b838610156108e25780518552600195909501949386019386016108c4565b5098975050505050505050565b600060208284031215610900578081fd5b8151801515811461090f578182fd5b9392505050565b60008060006060848603121561092a578283fd5b8351925060208401519150604084015190509250925092565b600060a082018783526020878185015260a0604085015281875180845260c0860191508289019350845b818110156109925784516001600160a01b03168352938301939183019160010161096d565b50506001600160a01b03969096166060850152505050608001529392505050565b600082198211156109d257634e487b7160e01b81526011600452602481fd5b500190565b634e487b7160e01b600052604160045260246000fdfea264697066735822122023aaf66f13452c89814ff3b8a0ede2d0c0b7340b924ab416786dde9fb74ea35364736f6c63430008040033",
  "linkReferences": {},
  "deployedLinkReferences": {}
}